{
  "_format": "hh-sol-artifact-1",
  "contractName": "RealEstateContract",
  "sourceName": "contracts/RealEstateContract.sol",
  "abi": [
    {
      "inputs": [],
      "stateMutability": "nonpayable",
      "type": "constructor"
    },
    {
      "anonymous": false,
      "inputs": [
        {
          "indexed": true,
          "internalType": "string",
          "name": "contractId",
          "type": "string"
        },
        {
          "indexed": true,
          "internalType": "address",
          "name": "buyer",
          "type": "address"
        },
        {
          "indexed": true,
          "internalType": "address",
          "name": "seller",
          "type": "address"
        },
        {
          "indexed": false,
          "internalType": "uint256",
          "name": "value",
          "type": "uint256"
        },
        {
          "indexed": false,
          "internalType": "uint256",
          "name": "timestamp",
          "type": "uint256"
        }
      ],
      "name": "PaymentTransferred",
      "type": "event"
    },
    {
      "anonymous": false,
      "inputs": [
        {
          "indexed": true,
          "internalType": "string",
          "name": "id",
          "type": "string"
        },
        {
          "indexed": false,
          "internalType": "string",
          "name": "title",
          "type": "string"
        },
        {
          "indexed": false,
          "internalType": "string",
          "name": "location",
          "type": "string"
        },
        {
          "indexed": false,
          "internalType": "uint256",
          "name": "price",
          "type": "uint256"
        },
        {
          "indexed": true,
          "internalType": "address",
          "name": "owner",
          "type": "address"
        },
        {
          "indexed": false,
          "internalType": "uint256",
          "name": "timestamp",
          "type": "uint256"
        }
      ],
      "name": "PropertyListed",
      "type": "event"
    },
    {
      "anonymous": false,
      "inputs": [
        {
          "indexed": true,
          "internalType": "string",
          "name": "propertyId",
          "type": "string"
        },
        {
          "indexed": false,
          "internalType": "string",
          "name": "contractId",
          "type": "string"
        },
        {
          "indexed": true,
          "internalType": "address",
          "name": "buyer",
          "type": "address"
        },
        {
          "indexed": true,
          "internalType": "address",
          "name": "seller",
          "type": "address"
        },
        {
          "indexed": false,
          "internalType": "uint256",
          "name": "value",
          "type": "uint256"
        },
        {
          "indexed": false,
          "internalType": "uint256",
          "name": "timestamp",
          "type": "uint256"
        }
      ],
      "name": "PropertySold",
      "type": "event"
    },
    {
      "anonymous": false,
      "inputs": [
        {
          "indexed": true,
          "internalType": "string",
          "name": "id",
          "type": "string"
        },
        {
          "indexed": false,
          "internalType": "uint256",
          "name": "newPrice",
          "type": "uint256"
        },
        {
          "indexed": false,
          "internalType": "bool",
          "name": "isActive",
          "type": "bool"
        },
        {
          "indexed": false,
          "internalType": "uint256",
          "name": "timestamp",
          "type": "uint256"
        }
      ],
      "name": "PropertyUpdated",
      "type": "event"
    },
    {
      "anonymous": false,
      "inputs": [
        {
          "indexed": true,
          "internalType": "string",
          "name": "propertyId",
          "type": "string"
        },
        {
          "indexed": false,
          "internalType": "address",
          "name": "verifier",
          "type": "address"
        },
        {
          "indexed": false,
          "internalType": "uint256",
          "name": "timestamp",
          "type": "uint256"
        }
      ],
      "name": "PropertyVerified",
      "type": "event"
    },
    {
      "inputs": [
        {
          "internalType": "string",
          "name": "",
          "type": "string"
        }
      ],
      "name": "contracts",
      "outputs": [
        {
          "internalType": "string",
          "name": "propertyId",
          "type": "string"
        },
        {
          "internalType": "address",
          "name": "buyer",
          "type": "address"
        },
        {
          "internalType": "address",
          "name": "seller",
          "type": "address"
        },
        {
          "internalType": "uint256",
          "name": "value",
          "type": "uint256"
        },
        {
          "internalType": "uint256",
          "name": "createdAt",
          "type": "uint256"
        },
        {
          "internalType": "bool",
          "name": "isCompleted",
          "type": "bool"
        },
        {
          "internalType": "string",
          "name": "status",
          "type": "string"
        }
      ],
      "stateMutability": "view",
      "type": "function"
    },
    {
      "inputs": [
        {
          "internalType": "string",
          "name": "_contractId",
          "type": "string"
        },
        {
          "internalType": "string",
          "name": "_propertyId",
          "type": "string"
        }
      ],
      "name": "createContract",
      "outputs": [],
      "stateMutability": "payable",
      "type": "function"
    },
    {
      "inputs": [
        {
          "internalType": "string",
          "name": "_id",
          "type": "string"
        },
        {
          "internalType": "string",
          "name": "_title",
          "type": "string"
        },
        {
          "internalType": "string",
          "name": "_description",
          "type": "string"
        },
        {
          "internalType": "uint256",
          "name": "_price",
          "type": "uint256"
        },
        {
          "internalType": "string",
          "name": "_location",
          "type": "string"
        },
        {
          "internalType": "string[]",
          "name": "_documents",
          "type": "string[]"
        }
      ],
      "name": "createProperty",
      "outputs": [],
      "stateMutability": "nonpayable",
      "type": "function"
    },
    {
      "inputs": [],
      "name": "getActiveProperties",
      "outputs": [
        {
          "components": [
            {
              "internalType": "string",
              "name": "id",
              "type": "string"
            },
            {
              "internalType": "string",
              "name": "title",
              "type": "string"
            },
            {
              "internalType": "string",
              "name": "description",
              "type": "string"
            },
            {
              "internalType": "uint256",
              "name": "price",
              "type": "uint256"
            },
            {
              "internalType": "string",
              "name": "location",
              "type": "string"
            },
            {
              "internalType": "address",
              "name": "owner",
              "type": "address"
            },
            {
              "internalType": "string[]",
              "name": "documents",
              "type": "string[]"
            },
            {
              "internalType": "bool",
              "name": "isActive",
              "type": "bool"
            },
            {
              "internalType": "uint256",
              "name": "createdAt",
              "type": "uint256"
            }
          ],
          "internalType": "struct RealEstateContract.Property[]",
          "name": "",
          "type": "tuple[]"
        }
      ],
      "stateMutability": "view",
      "type": "function"
    },
    {
      "inputs": [],
      "name": "getAllProperties",
      "outputs": [
        {
          "components": [
            {
              "internalType": "string",
              "name": "id",
              "type": "string"
            },
            {
              "internalType": "string",
              "name": "title",
              "type": "string"
            },
            {
              "internalType": "string",
              "name": "description",
              "type": "string"
            },
            {
              "internalType": "uint256",
              "name": "price",
              "type": "uint256"
            },
            {
              "internalType": "string",
              "name": "location",
              "type": "string"
            },
            {
              "internalType": "address",
              "name": "owner",
              "type": "address"
            },
            {
              "internalType": "string[]",
              "name": "documents",
              "type": "string[]"
            },
            {
              "internalType": "bool",
              "name": "isActive",
              "type": "bool"
            },
            {
              "internalType": "uint256",
              "name": "createdAt",
              "type": "uint256"
            }
          ],
          "internalType": "struct RealEstateContract.Property[]",
          "name": "",
          "type": "tuple[]"
        }
      ],
      "stateMutability": "view",
      "type": "function"
    },
    {
      "inputs": [],
      "name": "owner",
      "outputs": [
        {
          "internalType": "address",
          "name": "",
          "type": "address"
        }
      ],
      "stateMutability": "view",
      "type": "function"
    },
    {
      "inputs": [],
      "name": "platformFee",
      "outputs": [
        {
          "internalType": "uint256",
          "name": "",
          "type": "uint256"
        }
      ],
      "stateMutability": "view",
      "type": "function"
    },
    {
      "inputs": [
        {
          "internalType": "string",
          "name": "",
          "type": "string"
        }
      ],
      "name": "properties",
      "outputs": [
        {
          "internalType": "string",
          "name": "id",
          "type": "string"
        },
        {
          "internalType": "string",
          "name": "title",
          "type": "string"
        },
        {
          "internalType": "string",
          "name": "description",
          "type": "string"
        },
        {
          "internalType": "uint256",
          "name": "price",
          "type": "uint256"
        },
        {
          "internalType": "string",
          "name": "location",
          "type": "string"
        },
        {
          "internalType": "address",
          "name": "owner",
          "type": "address"
        },
        {
          "internalType": "bool",
          "name": "isActive",
          "type": "bool"
        },
        {
          "internalType": "uint256",
          "name": "createdAt",
          "type": "uint256"
        }
      ],
      "stateMutability": "view",
      "type": "function"
    },
    {
      "inputs": [
        {
          "internalType": "uint256",
          "name": "",
          "type": "uint256"
        }
      ],
      "name": "propertyIds",
      "outputs": [
        {
          "internalType": "string",
          "name": "",
          "type": "string"
        }
      ],
      "stateMutability": "view",
      "type": "function"
    },
    {
      "inputs": [
        {
          "internalType": "uint256",
          "name": "_newFee",
          "type": "uint256"
        }
      ],
      "name": "updatePlatformFee",
      "outputs": [],
      "stateMutability": "nonpayable",
      "type": "function"
    },
    {
      "inputs": [
        {
          "internalType": "string",
          "name": "_propertyId",
          "type": "string"
        },
        {
          "internalType": "uint256",
          "name": "_newPrice",
          "type": "uint256"
        },
        {
          "internalType": "bool",
          "name": "_isActive",
          "type": "bool"
        }
      ],
      "name": "updateProperty",
      "outputs": [],
      "stateMutability": "nonpayable",
      "type": "function"
    },
    {
      "inputs": [
        {
          "internalType": "address",
          "name": "",
          "type": "address"
        }
      ],
      "name": "verifiedUsers",
      "outputs": [
        {
          "internalType": "bool",
          "name": "",
          "type": "bool"
        }
      ],
      "stateMutability": "view",
      "type": "function"
    },
    {
      "inputs": [],
      "name": "withdrawPlatformFees",
      "outputs": [],
      "stateMutability": "nonpayable",
      "type": "function"
    },
    {
      "stateMutability": "payable",
      "type": "receive"
    }
  ],
  "bytecode": "0x608060405234801561001057600080fd5b5033600460006101000a81548173ffffffffffffffffffffffffffffffffffffffff021916908373ffffffffffffffffffffffffffffffffffffffff1602179055506019600581905550613da1806100696000396000f3fe6080604052600436106100c65760003560e01c80638da5cb5b1161007f578063d03b47f411610059578063d03b47f414610271578063d0b7830b146102ae578063e35fe366146102c5578063eb81e09814610302576100cd565b80638da5cb5b146101d95780639be8f2a614610204578063aa0b598814610248576100cd565b8063024ea25f146100d257806326232a2e146100fb5780633d51402c146101265780634d84e9c114610151578063631a42311461017a5780638c5b838514610196576100cd565b366100cd57005b600080fd5b3480156100de57600080fd5b506100f960048036038101906100f491906125c2565b61032d565b005b34801561010757600080fd5b50610110610572565b60405161011d9190612640565b60405180910390f35b34801561013257600080fd5b5061013b610578565b604051610148919061299e565b60405180910390f35b34801561015d57600080fd5b5061017860048036038101906101739190612aa6565b610a0d565b005b610194600480360381019061018f9190612bbf565b610de0565b005b3480156101a257600080fd5b506101bd60048036038101906101b89190612c37565b611569565b6040516101d09796959493929190612ce8565b60405180910390f35b3480156101e557600080fd5b506101ee61171e565b6040516101fb9190612d65565b60405180910390f35b34801561021057600080fd5b5061022b60048036038101906102269190612c37565b611744565b60405161023f989796959493929190612d80565b60405180910390f35b34801561025457600080fd5b5061026f600480360381019061026a9190612e1a565b6119ef565b005b34801561027d57600080fd5b5061029860048036038101906102939190612e1a565b611ace565b6040516102a59190612e47565b60405180910390f35b3480156102ba57600080fd5b506102c3611b7a565b005b3480156102d157600080fd5b506102ec60048036038101906102e79190612e95565b611d24565b6040516102f99190612ec2565b60405180910390f35b34801561030e57600080fd5b50610317611d44565b604051610324919061299e565b60405180910390f35b823373ffffffffffffffffffffffffffffffffffffffff166000826040516103559190612f19565b908152602001604051809103902060050160009054906101000a900473ffffffffffffffffffffffffffffffffffffffff1673ffffffffffffffffffffffffffffffffffffffff16146103dd576040517f08c379a00000000000000000000000000000000000000000000000000000000081526004016103d490612fa2565b60405180910390fd5b83600073ffffffffffffffffffffffffffffffffffffffff166000826040516104069190612f19565b908152602001604051809103902060050160009054906101000a900473ffffffffffffffffffffffffffffffffffffffff1673ffffffffffffffffffffffffffffffffffffffff160361048e576040517f08c379a00000000000000000000000000000000000000000000000000000000081526004016104859061300e565b60405180910390fd5b83600081116104d2576040517f08c379a00000000000000000000000000000000000000000000000000000000081526004016104c99061307a565b60405180910390fd5b600080876040516104e39190612f19565b90815260200160405180910390209050858160030181905550848160070160006101000a81548160ff021916908315150217905550866040516105269190612f19565b60405180910390207ff5d40d1d1a2e05fd8d89173683ce53c2251a33cc53c21727a558e5f5f1e87d998787426040516105619392919061309a565b60405180910390a250505050505050565b60055481565b6060600060028054905067ffffffffffffffff81111561059b5761059a612429565b5b6040519080825280602002602001820160405280156105d457816020015b6105c16122bc565b8152602001906001900390816105b95790505b50905060005b600280549050811015610a05576000600282815481106105fd576105fc6130d1565b5b9060005260206000200160405161061491906131f8565b90815260200160405180910390206040518061012001604052908160008201805461063e9061312f565b80601f016020809104026020016040519081016040528092919081815260200182805461066a9061312f565b80156106b75780601f1061068c576101008083540402835291602001916106b7565b820191906000526020600020905b81548152906001019060200180831161069a57829003601f168201915b505050505081526020016001820180546106d09061312f565b80601f01602080910402602001604051908101604052809291908181526020018280546106fc9061312f565b80156107495780601f1061071e57610100808354040283529160200191610749565b820191906000526020600020905b81548152906001019060200180831161072c57829003601f168201915b505050505081526020016002820180546107629061312f565b80601f016020809104026020016040519081016040528092919081815260200182805461078e9061312f565b80156107db5780601f106107b0576101008083540402835291602001916107db565b820191906000526020600020905b8154815290600101906020018083116107be57829003601f168201915b50505050508152602001600382015481526020016004820180546107fe9061312f565b80601f016020809104026020016040519081016040528092919081815260200182805461082a9061312f565b80156108775780601f1061084c57610100808354040283529160200191610877565b820191906000526020600020905b81548152906001019060200180831161085a57829003601f168201915b505050505081526020016005820160009054906101000a900473ffffffffffffffffffffffffffffffffffffffff1673ffffffffffffffffffffffffffffffffffffffff1673ffffffffffffffffffffffffffffffffffffffff16815260200160068201805480602002602001604051908101604052809291908181526020016000905b828210156109a757838290600052602060002001805461091a9061312f565b80601f01602080910402602001604051908101604052809291908181526020018280546109469061312f565b80156109935780601f1061096857610100808354040283529160200191610993565b820191906000526020600020905b81548152906001019060200180831161097657829003601f168201915b5050505050815260200190600101906108fb565b5050505081526020016007820160009054906101000a900460ff161515151581526020016008820154815250508282815181106109e7576109e66130d1565b5b602002602001018190525080806109fd9061323e565b9150506105da565b508091505090565b8260008111610a51576040517f08c379a0000000000000000000000000000000000000000000000000000000008152600401610a489061307a565b60405180910390fd5b6000875111610a95576040517f08c379a0000000000000000000000000000000000000000000000000000000008152600401610a8c906132d2565b60405180910390fd5b600073ffffffffffffffffffffffffffffffffffffffff16600088604051610abd9190612f19565b908152602001604051809103902060050160009054906101000a900473ffffffffffffffffffffffffffffffffffffffff1673ffffffffffffffffffffffffffffffffffffffff1614610b45576040517f08c379a0000000000000000000000000000000000000000000000000000000008152600401610b3c9061333e565b60405180910390fd5b6000865111610b89576040517f08c379a0000000000000000000000000000000000000000000000000000000008152600401610b80906133aa565b60405180910390fd5b6000835111610bcd576040517f08c379a0000000000000000000000000000000000000000000000000000000008152600401610bc490613416565b60405180910390fd5b6040518061012001604052808881526020018781526020018681526020018581526020018481526020013373ffffffffffffffffffffffffffffffffffffffff16815260200183815260200160011515815260200142815250600088604051610c369190612f19565b90815260200160405180910390206000820151816000019081610c5991906135cd565b506020820151816001019081610c6f91906135cd565b506040820151816002019081610c8591906135cd565b50606082015181600301556080820151816004019081610ca591906135cd565b5060a08201518160050160006101000a81548173ffffffffffffffffffffffffffffffffffffffff021916908373ffffffffffffffffffffffffffffffffffffffff16021790555060c0820151816006019080519060200190610d09929190612320565b5060e08201518160070160006101000a81548160ff0219169083151502179055506101008201518160080155905050600287908060018154018082558091505060019003906000526020600020016000909190919091509081610d6c91906135cd565b503373ffffffffffffffffffffffffffffffffffffffff1687604051610d929190612f19565b60405180910390207fd6754196a33ed4345c90f4de3a22beea2ab767193788c545d7222e80427799f488868842604051610dcf949392919061369f565b60405180910390a350505050505050565b80600073ffffffffffffffffffffffffffffffffffffffff16600082604051610e099190612f19565b908152602001604051809103902060050160009054906101000a900473ffffffffffffffffffffffffffffffffffffffff1673ffffffffffffffffffffffffffffffffffffffff1603610e91576040517f08c379a0000000000000000000000000000000000000000000000000000000008152600401610e889061300e565b60405180910390fd5b60008083604051610ea29190612f19565b908152602001604051809103902090508060070160009054906101000a900460ff16610f03576040517f08c379a0000000000000000000000000000000000000000000000000000000008152600401610efa90613764565b60405180910390fd5b3373ffffffffffffffffffffffffffffffffffffffff168160050160009054906101000a900473ffffffffffffffffffffffffffffffffffffffff1673ffffffffffffffffffffffffffffffffffffffff1603610f95576040517f08c379a0000000000000000000000000000000000000000000000000000000008152600401610f8c906137f6565b60405180910390fd5b80600301543414610fdb576040517f08c379a0000000000000000000000000000000000000000000000000000000008152600401610fd290613888565b60405180910390fd5b600073ffffffffffffffffffffffffffffffffffffffff166001856040516110039190612f19565b908152602001604051809103902060010160009054906101000a900473ffffffffffffffffffffffffffffffffffffffff1673ffffffffffffffffffffffffffffffffffffffff161461108b576040517f08c379a0000000000000000000000000000000000000000000000000000000008152600401611082906138f4565b60405180910390fd5b60006127106005543461109e9190613914565b6110a89190613985565b9050600081346110b891906139b6565b905060008360050160009054906101000a900473ffffffffffffffffffffffffffffffffffffffff1690506040518060e001604052808781526020013373ffffffffffffffffffffffffffffffffffffffff1681526020018273ffffffffffffffffffffffffffffffffffffffff1681526020013481526020014281526020016000151581526020016040518060400160405280600781526020017f437265617465640000000000000000000000000000000000000000000000000081525081525060018860405161118a9190612f19565b908152602001604051809103902060008201518160000190816111ad91906135cd565b5060208201518160010160006101000a81548173ffffffffffffffffffffffffffffffffffffffff021916908373ffffffffffffffffffffffffffffffffffffffff16021790555060408201518160020160006101000a81548173ffffffffffffffffffffffffffffffffffffffff021916908373ffffffffffffffffffffffffffffffffffffffff160217905550606082015181600301556080820151816004015560a08201518160050160006101000a81548160ff02191690831515021790555060c082015181600601908161128591906135cd565b50905050338460050160006101000a81548173ffffffffffffffffffffffffffffffffffffffff021916908373ffffffffffffffffffffffffffffffffffffffff16021790555060008460070160006101000a81548160ff0219169083151502179055506000600460009054906101000a900473ffffffffffffffffffffffffffffffffffffffff1673ffffffffffffffffffffffffffffffffffffffff168460405161133190613a1b565b60006040518083038185875af1925050503d806000811461136e576040519150601f19603f3d011682016040523d82523d6000602084013e611373565b606091505b50509050806113b7576040517f08c379a00000000000000000000000000000000000000000000000000000000081526004016113ae90613a7c565b60405180910390fd5b60008273ffffffffffffffffffffffffffffffffffffffff16846040516113dd90613a1b565b60006040518083038185875af1925050503d806000811461141a576040519150601f19603f3d011682016040523d82523d6000602084013e61141f565b606091505b5050905080611463576040517f08c379a000000000000000000000000000000000000000000000000000000000815260040161145a90613b0e565b60405180910390fd5b8273ffffffffffffffffffffffffffffffffffffffff163373ffffffffffffffffffffffffffffffffffffffff168960405161149f9190612f19565b60405180910390207fe1d41ea9a41f7dab2a27294bb4cadb7b9a1ba7d384520bd2946e7b09bf29ccfc8c34426040516114da93929190613b2e565b60405180910390a48273ffffffffffffffffffffffffffffffffffffffff163373ffffffffffffffffffffffffffffffffffffffff168a60405161151e9190612f19565b60405180910390207e419e6fb4e94e8d7fa7c95fe048e35c07b1e8b5d8d8dde71bbb6e6a01d901f38742604051611556929190613b6c565b60405180910390a4505050505050505050565b6001818051602081018201805184825260208301602085012081835280955050505050506000915090508060000180546115a29061312f565b80601f01602080910402602001604051908101604052809291908181526020018280546115ce9061312f565b801561161b5780601f106115f05761010080835404028352916020019161161b565b820191906000526020600020905b8154815290600101906020018083116115fe57829003601f168201915b5050505050908060010160009054906101000a900473ffffffffffffffffffffffffffffffffffffffff16908060020160009054906101000a900473ffffffffffffffffffffffffffffffffffffffff16908060030154908060040154908060050160009054906101000a900460ff169080600601805461169b9061312f565b80601f01602080910402602001604051908101604052809291908181526020018280546116c79061312f565b80156117145780601f106116e957610100808354040283529160200191611714565b820191906000526020600020905b8154815290600101906020018083116116f757829003601f168201915b5050505050905087565b600460009054906101000a900473ffffffffffffffffffffffffffffffffffffffff1681565b60008180516020810182018051848252602083016020850120818352809550505050505060009150905080600001805461177d9061312f565b80601f01602080910402602001604051908101604052809291908181526020018280546117a99061312f565b80156117f65780601f106117cb576101008083540402835291602001916117f6565b820191906000526020600020905b8154815290600101906020018083116117d957829003601f168201915b50505050509080600101805461180b9061312f565b80601f01602080910402602001604051908101604052809291908181526020018280546118379061312f565b80156118845780601f1061185957610100808354040283529160200191611884565b820191906000526020600020905b81548152906001019060200180831161186757829003601f168201915b5050505050908060020180546118999061312f565b80601f01602080910402602001604051908101604052809291908181526020018280546118c59061312f565b80156119125780601f106118e757610100808354040283529160200191611912565b820191906000526020600020905b8154815290600101906020018083116118f557829003601f168201915b50505050509080600301549080600401805461192d9061312f565b80601f01602080910402602001604051908101604052809291908181526020018280546119599061312f565b80156119a65780601f1061197b576101008083540402835291602001916119a6565b820191906000526020600020905b81548152906001019060200180831161198957829003601f168201915b5050505050908060050160009054906101000a900473ffffffffffffffffffffffffffffffffffffffff16908060070160009054906101000a900460ff16908060080154905088565b600460009054906101000a900473ffffffffffffffffffffffffffffffffffffffff1673ffffffffffffffffffffffffffffffffffffffff163373ffffffffffffffffffffffffffffffffffffffff1614611a7f576040517f08c379a0000000000000000000000000000000000000000000000000000000008152600401611a7690613c07565b60405180910390fd5b6103e8811115611ac4576040517f08c379a0000000000000000000000000000000000000000000000000000000008152600401611abb90613c73565b60405180910390fd5b8060058190555050565b60028181548110611ade57600080fd5b906000526020600020016000915090508054611af99061312f565b80601f0160208091040260200160405190810160405280929190818152602001828054611b259061312f565b8015611b725780601f10611b4757610100808354040283529160200191611b72565b820191906000526020600020905b815481529060010190602001808311611b5557829003601f168201915b505050505081565b600460009054906101000a900473ffffffffffffffffffffffffffffffffffffffff1673ffffffffffffffffffffffffffffffffffffffff163373ffffffffffffffffffffffffffffffffffffffff1614611c0a576040517f08c379a0000000000000000000000000000000000000000000000000000000008152600401611c0190613c07565b60405180910390fd5b600047905060008111611c52576040517f08c379a0000000000000000000000000000000000000000000000000000000008152600401611c4990613cdf565b60405180910390fd5b6000600460009054906101000a900473ffffffffffffffffffffffffffffffffffffffff1673ffffffffffffffffffffffffffffffffffffffff1682604051611c9a90613a1b565b60006040518083038185875af1925050503d8060008114611cd7576040519150601f19603f3d011682016040523d82523d6000602084013e611cdc565b606091505b5050905080611d20576040517f08c379a0000000000000000000000000000000000000000000000000000000008152600401611d1790613d4b565b60405180910390fd5b5050565b60036020528060005260406000206000915054906101000a900460ff1681565b60606000805b600280549050811015611dca57600060028281548110611d6d57611d6c6130d1565b5b90600052602060002001604051611d8491906131f8565b908152602001604051809103902060070160009054906101000a900460ff1615611db7578180611db39061323e565b9250505b8080611dc29061323e565b915050611d4a565b5060008167ffffffffffffffff811115611de757611de6612429565b5b604051908082528060200260200182016040528015611e2057816020015b611e0d6122bc565b815260200190600190039081611e055790505b5090506000805b6002805490508110156122b257600060028281548110611e4a57611e496130d1565b5b90600052602060002001604051611e6191906131f8565b908152602001604051809103902060070160009054906101000a900460ff161561229f57600060028281548110611e9b57611e9a6130d1565b5b90600052602060002001604051611eb291906131f8565b908152602001604051809103902060405180610120016040529081600082018054611edc9061312f565b80601f0160208091040260200160405190810160405280929190818152602001828054611f089061312f565b8015611f555780601f10611f2a57610100808354040283529160200191611f55565b820191906000526020600020905b815481529060010190602001808311611f3857829003601f168201915b50505050508152602001600182018054611f6e9061312f565b80601f0160208091040260200160405190810160405280929190818152602001828054611f9a9061312f565b8015611fe75780601f10611fbc57610100808354040283529160200191611fe7565b820191906000526020600020905b815481529060010190602001808311611fca57829003601f168201915b505050505081526020016002820180546120009061312f565b80601f016020809104026020016040519081016040528092919081815260200182805461202c9061312f565b80156120795780601f1061204e57610100808354040283529160200191612079565b820191906000526020600020905b81548152906001019060200180831161205c57829003601f168201915b505050505081526020016003820154815260200160048201805461209c9061312f565b80601f01602080910402602001604051908101604052809291908181526020018280546120c89061312f565b80156121155780601f106120ea57610100808354040283529160200191612115565b820191906000526020600020905b8154815290600101906020018083116120f857829003601f168201915b505050505081526020016005820160009054906101000a900473ffffffffffffffffffffffffffffffffffffffff1673ffffffffffffffffffffffffffffffffffffffff1673ffffffffffffffffffffffffffffffffffffffff16815260200160068201805480602002602001604051908101604052809291908181526020016000905b828210156122455783829060005260206000200180546121b89061312f565b80601f01602080910402602001604051908101604052809291908181526020018280546121e49061312f565b80156122315780601f1061220657610100808354040283529160200191612231565b820191906000526020600020905b81548152906001019060200180831161221457829003601f168201915b505050505081526020019060010190612199565b5050505081526020016007820160009054906101000a900460ff16151515158152602001600882015481525050838381518110612285576122846130d1565b5b6020026020010181905250818061229b9061323e565b9250505b80806122aa9061323e565b915050611e27565b5081935050505090565b6040518061012001604052806060815260200160608152602001606081526020016000815260200160608152602001600073ffffffffffffffffffffffffffffffffffffffff16815260200160608152602001600015158152602001600081525090565b828054828255906000526020600020908101928215612368579160200282015b8281111561236757825182908161235791906135cd565b5091602001919060010190612340565b5b5090506123759190612379565b5090565b5b808211156123995760008181612390919061239d565b5060010161237a565b5090565b5080546123a99061312f565b6000825580601f106123bb57506123da565b601f0160209004906000526020600020908101906123d991906123dd565b5b50565b5b808211156123f65760008160009055506001016123de565b5090565b6000604051905090565b600080fd5b600080fd5b600080fd5b600080fd5b6000601f19601f8301169050919050565b7f4e487b7100000000000000000000000000000000000000000000000000000000600052604160045260246000fd5b61246182612418565b810181811067ffffffffffffffff821117156124805761247f612429565b5b80604052505050565b60006124936123fa565b905061249f8282612458565b919050565b600067ffffffffffffffff8211156124bf576124be612429565b5b6124c882612418565b9050602081019050919050565b82818337600083830152505050565b60006124f76124f2846124a4565b612489565b90508281526020810184848401111561251357612512612413565b5b61251e8482856124d5565b509392505050565b600082601f83011261253b5761253a61240e565b5b813561254b8482602086016124e4565b91505092915050565b6000819050919050565b61256781612554565b811461257257600080fd5b50565b6000813590506125848161255e565b92915050565b60008115159050919050565b61259f8161258a565b81146125aa57600080fd5b50565b6000813590506125bc81612596565b92915050565b6000806000606084860312156125db576125da612404565b5b600084013567ffffffffffffffff8111156125f9576125f8612409565b5b61260586828701612526565b935050602061261686828701612575565b9250506040612627868287016125ad565b9150509250925092565b61263a81612554565b82525050565b60006020820190506126556000830184612631565b92915050565b600081519050919050565b600082825260208201905092915050565b6000819050602082019050919050565b600081519050919050565b600082825260208201905092915050565b60005b838110156126c15780820151818401526020810190506126a6565b60008484015250505050565b60006126d882612687565b6126e28185612692565b93506126f28185602086016126a3565b6126fb81612418565b840191505092915050565b61270f81612554565b82525050565b600073ffffffffffffffffffffffffffffffffffffffff82169050919050565b600061274082612715565b9050919050565b61275081612735565b82525050565b600081519050919050565b600082825260208201905092915050565b6000819050602082019050919050565b600061278e83836126cd565b905092915050565b6000602082019050919050565b60006127ae82612756565b6127b88185612761565b9350836020820285016127ca85612772565b8060005b8581101561280657848403895281516127e78582612782565b94506127f283612796565b925060208a019950506001810190506127ce565b50829750879550505050505092915050565b6128218161258a565b82525050565b600061012083016000830151848203600086015261284582826126cd565b9150506020830151848203602086015261285f82826126cd565b9150506040830151848203604086015261287982826126cd565b915050606083015161288e6060860182612706565b50608083015184820360808601526128a682826126cd565b91505060a08301516128bb60a0860182612747565b5060c083015184820360c08601526128d382826127a3565b91505060e08301516128e860e0860182612818565b506101008301516128fd610100860182612706565b508091505092915050565b60006129148383612827565b905092915050565b6000602082019050919050565b60006129348261265b565b61293e8185612666565b93508360208202850161295085612677565b8060005b8581101561298c578484038952815161296d8582612908565b94506129788361291c565b925060208a01995050600181019050612954565b50829750879550505050505092915050565b600060208201905081810360008301526129b88184612929565b905092915050565b600067ffffffffffffffff8211156129db576129da612429565b5b602082029050602081019050919050565b600080fd5b6000612a046129ff846129c0565b612489565b90508083825260208201905060208402830185811115612a2757612a266129ec565b5b835b81811015612a6e57803567ffffffffffffffff811115612a4c57612a4b61240e565b5b808601612a598982612526565b85526020850194505050602081019050612a29565b5050509392505050565b600082601f830112612a8d57612a8c61240e565b5b8135612a9d8482602086016129f1565b91505092915050565b60008060008060008060c08789031215612ac357612ac2612404565b5b600087013567ffffffffffffffff811115612ae157612ae0612409565b5b612aed89828a01612526565b965050602087013567ffffffffffffffff811115612b0e57612b0d612409565b5b612b1a89828a01612526565b955050604087013567ffffffffffffffff811115612b3b57612b3a612409565b5b612b4789828a01612526565b9450506060612b5889828a01612575565b935050608087013567ffffffffffffffff811115612b7957612b78612409565b5b612b8589828a01612526565b92505060a087013567ffffffffffffffff811115612ba657612ba5612409565b5b612bb289828a01612a78565b9150509295509295509295565b60008060408385031215612bd657612bd5612404565b5b600083013567ffffffffffffffff811115612bf457612bf3612409565b5b612c0085828601612526565b925050602083013567ffffffffffffffff811115612c2157612c20612409565b5b612c2d85828601612526565b9150509250929050565b600060208284031215612c4d57612c4c612404565b5b600082013567ffffffffffffffff811115612c6b57612c6a612409565b5b612c7784828501612526565b91505092915050565b600082825260208201905092915050565b6000612c9c82612687565b612ca68185612c80565b9350612cb68185602086016126a3565b612cbf81612418565b840191505092915050565b612cd381612735565b82525050565b612ce28161258a565b82525050565b600060e0820190508181036000830152612d02818a612c91565b9050612d116020830189612cca565b612d1e6040830188612cca565b612d2b6060830187612631565b612d386080830186612631565b612d4560a0830185612cd9565b81810360c0830152612d578184612c91565b905098975050505050505050565b6000602082019050612d7a6000830184612cca565b92915050565b6000610100820190508181036000830152612d9b818b612c91565b90508181036020830152612daf818a612c91565b90508181036040830152612dc38189612c91565b9050612dd26060830188612631565b8181036080830152612de48187612c91565b9050612df360a0830186612cca565b612e0060c0830185612cd9565b612e0d60e0830184612631565b9998505050505050505050565b600060208284031215612e3057612e2f612404565b5b6000612e3e84828501612575565b91505092915050565b60006020820190508181036000830152612e618184612c91565b905092915050565b612e7281612735565b8114612e7d57600080fd5b50565b600081359050612e8f81612e69565b92915050565b600060208284031215612eab57612eaa612404565b5b6000612eb984828501612e80565b91505092915050565b6000602082019050612ed76000830184612cd9565b92915050565b600081905092915050565b6000612ef382612687565b612efd8185612edd565b9350612f0d8185602086016126a3565b80840191505092915050565b6000612f258284612ee8565b915081905092915050565b7f4f6e6c792070726f7065727479206f776e65722063616e20706572666f726d2060008201527f7468697320616374696f6e000000000000000000000000000000000000000000602082015250565b6000612f8c602b83612c80565b9150612f9782612f30565b604082019050919050565b60006020820190508181036000830152612fbb81612f7f565b9050919050565b7f50726f706572747920646f6573206e6f74206578697374000000000000000000600082015250565b6000612ff8601783612c80565b915061300382612fc2565b602082019050919050565b6000602082019050818103600083015261302781612feb565b9050919050565b7f5072696365206d7573742062652067726561746572207468616e203000000000600082015250565b6000613064601c83612c80565b915061306f8261302e565b602082019050919050565b6000602082019050818103600083015261309381613057565b9050919050565b60006060820190506130af6000830186612631565b6130bc6020830185612cd9565b6130c96040830184612631565b949350505050565b7f4e487b7100000000000000000000000000000000000000000000000000000000600052603260045260246000fd5b7f4e487b7100000000000000000000000000000000000000000000000000000000600052602260045260246000fd5b6000600282049050600182168061314757607f821691505b60208210810361315a57613159613100565b5b50919050565b60008190508160005260206000209050919050565b600081546131828161312f565b61318c8186612edd565b945060018216600081146131a757600181146131bc576131ef565b60ff19831686528115158202860193506131ef565b6131c585613160565b60005b838110156131e7578154818901526001820191506020810190506131c8565b838801955050505b50505092915050565b60006132048284613175565b915081905092915050565b7f4e487b7100000000000000000000000000000000000000000000000000000000600052601160045260246000fd5b600061324982612554565b91507fffffffffffffffffffffffffffffffffffffffffffffffffffffffffffffffff820361327b5761327a61320f565b5b600182019050919050565b7f496e76616c69642070726f706572747920494400000000000000000000000000600082015250565b60006132bc601383612c80565b91506132c782613286565b602082019050919050565b600060208201905081810360008301526132eb816132af565b9050919050565b7f50726f706572747920494420616c726561647920657869737473000000000000600082015250565b6000613328601a83612c80565b9150613333826132f2565b602082019050919050565b600060208201905081810360008301526133578161331b565b9050919050565b7f5469746c652063616e6e6f7420626520656d7074790000000000000000000000600082015250565b6000613394601583612c80565b915061339f8261335e565b602082019050919050565b600060208201905081810360008301526133c381613387565b9050919050565b7f4c6f636174696f6e2063616e6e6f7420626520656d7074790000000000000000600082015250565b6000613400601883612c80565b915061340b826133ca565b602082019050919050565b6000602082019050818103600083015261342f816133f3565b9050919050565b60006020601f8301049050919050565b600082821b905092915050565b6000600883026134837fffffffffffffffffffffffffffffffffffffffffffffffffffffffffffffffff82613446565b61348d8683613446565b95508019841693508086168417925050509392505050565b6000819050919050565b60006134ca6134c56134c084612554565b6134a5565b612554565b9050919050565b6000819050919050565b6134e4836134af565b6134f86134f0826134d1565b848454613453565b825550505050565b600090565b61350d613500565b6135188184846134db565b505050565b5b8181101561353c57613531600082613505565b60018101905061351e565b5050565b601f8211156135815761355281613160565b61355b84613436565b8101602085101561356a578190505b61357e61357685613436565b83018261351d565b50505b505050565b600082821c905092915050565b60006135a460001984600802613586565b1980831691505092915050565b60006135bd8383613593565b9150826002028217905092915050565b6135d682612687565b67ffffffffffffffff8111156135ef576135ee612429565b5b6135f9825461312f565b613604828285613540565b600060209050601f8311600181146136375760008415613625578287015190505b61362f85826135b1565b865550613697565b601f19841661364586613160565b60005b8281101561366d57848901518255600182019150602085019450602081019050613648565b8683101561368a5784890151613686601f891682613593565b8355505b6001600288020188555050505b505050505050565b600060808201905081810360008301526136b98187612c91565b905081810360208301526136cd8186612c91565b90506136dc6040830185612631565b6136e96060830184612631565b95945050505050565b7f50726f7065727479206973206e6f7420617661696c61626c6520666f7220707560008201527f7263686173650000000000000000000000000000000000000000000000000000602082015250565b600061374e602683612c80565b9150613759826136f2565b604082019050919050565b6000602082019050818103600083015261377d81613741565b9050919050565b7f50726f7065727479206f776e65722063616e6e6f74207075726368617365207460008201527f68656972206f776e2070726f7065727479000000000000000000000000000000602082015250565b60006137e0603183612c80565b91506137eb82613784565b604082019050919050565b6000602082019050818103600083015261380f816137d3565b9050919050565b7f5061796d656e7420616d6f756e74206d757374206d617463682070726f70657260008201527f7479207072696365000000000000000000000000000000000000000000000000602082015250565b6000613872602883612c80565b915061387d82613816565b604082019050919050565b600060208201905081810360008301526138a181613865565b9050919050565b7f436f6e747261637420494420616c726561647920657869737473000000000000600082015250565b60006138de601a83612c80565b91506138e9826138a8565b602082019050919050565b6000602082019050818103600083015261390d816138d1565b9050919050565b600061391f82612554565b915061392a83612554565b925082820261393881612554565b9150828204841483151761394f5761394e61320f565b5b5092915050565b7f4e487b7100000000000000000000000000000000000000000000000000000000600052601260045260246000fd5b600061399082612554565b915061399b83612554565b9250826139ab576139aa613956565b5b828204905092915050565b60006139c182612554565b91506139cc83612554565b92508282039050818111156139e4576139e361320f565b5b92915050565b600081905092915050565b50565b6000613a056000836139ea565b9150613a10826139f5565b600082019050919050565b6000613a26826139f8565b9150819050919050565b7f506c6174666f726d20666565207472616e73666572206661696c656400000000600082015250565b6000613a66601c83612c80565b9150613a7182613a30565b602082019050919050565b60006020820190508181036000830152613a9581613a59565b9050919050565b7f5061796d656e74207472616e7366657220746f2073656c6c6572206661696c6560008201527f6400000000000000000000000000000000000000000000000000000000000000602082015250565b6000613af8602183612c80565b9150613b0382613a9c565b604082019050919050565b60006020820190508181036000830152613b2781613aeb565b9050919050565b60006060820190508181036000830152613b488186612c91565b9050613b576020830185612631565b613b646040830184612631565b949350505050565b6000604082019050613b816000830185612631565b613b8e6020830184612631565b9392505050565b7f4f6e6c7920636f6e7472616374206f776e65722063616e2063616c6c2074686960008201527f732066756e6374696f6e00000000000000000000000000000000000000000000602082015250565b6000613bf1602a83612c80565b9150613bfc82613b95565b604082019050919050565b60006020820190508181036000830152613c2081613be4565b9050919050565b7f4665652063616e6e6f7420657863656564203130250000000000000000000000600082015250565b6000613c5d601583612c80565b9150613c6882613c27565b602082019050919050565b60006020820190508181036000830152613c8c81613c50565b9050919050565b7f4e6f206665657320746f20776974686472617700000000000000000000000000600082015250565b6000613cc9601383612c80565b9150613cd482613c93565b602082019050919050565b60006020820190508181036000830152613cf881613cbc565b9050919050565b7f466565207769746864726177616c206661696c65640000000000000000000000600082015250565b6000613d35601583612c80565b9150613d4082613cff565b602082019050919050565b60006020820190508181036000830152613d6481613d28565b905091905056fea2646970667358221220b499f0e35fe74d2186fb2811fffb5cd9dd521ae62f08cd1d06bed93ca4ffe21064736f6c63430008130033",
  "linkReferences": {},
  "deployedLinkReferences": {}
}